:100000000C942A000C9434000C9434000C943400AA
:100010000C9434000C9434000C9434000C94340090
:100020000C9434000C9434000C9434000C94340080
:100030000C9434000C9434000C9434000C94340070
:100040000C9434000C9434000C9434000C94340060
:100050000C94340011241FBECFE5D8E0DEBFCDBF25
:100060000E943F000C9461000C9400001ABA17BA69
:1000700014BA11BA1BBA18BA15BA12BA08950E9466
:1000800036000E945600C0E001C0C0E08C2F0E94E4
:100090005D002FEF80E792E0215080409040E1F733
:1000A00000C00000C93089F3CF5FF0CFBC9ABD9A81
:1000B000BE98BF9A80E58DB908958FB9779BFECF22
:0600C0000895F894FFCF43
:00000001FF
