:100000000C942A000C9434000C9434000C943400AA
:100010000C9434000C9434000C9434000C94340090
:100020000C9434000C9434000C9434000C94340080
:100030000C9434000C9434000C9434000C94340070
:100040000C9434000C9434000C9434000C94340060
:100050000C94340011241FBECFE5D8E0DEBFCDBF25
:100060000E94A9010C94F8010C9400001ABA17BA66
:1000700014BA11BA1BBA18BA15BA12BA0895813057
:1000800001F130F08230B1F1833009F44CC00895B1
:10009000413059F42AB381E090E002C0880F991FE3
:1000A0006A95E2F7822B8ABB08952AB381E090E03B
:1000B00002C0880F991F6A95E2F7809582238ABB58
:1000C0000895413059F427B381E090E002C0880FD1
:1000D000991F6A95E2F7822B87BB089527B381E0C9
:1000E00090E002C0880F991F6A95E2F780958223FD
:1000F00087BB0895413059F424B381E090E002C0F9
:10010000880F991F6A95E2F7822B84BB089524B368
:1001100081E090E002C0880F991F6A95E2F7809510
:10012000822384BB0895413059F421B381E090E0EB
:1001300002C0880F991F6A95E2F7822B81BB089550
:1001400021B381E090E002C0880F991F6A95E2F721
:100150008095822381BB0895813099F028F0823008
:10016000E9F0833041F10895613019F48FEF8ABBD3
:100170000895611102C01ABA08958AB3682B6ABB48
:100180000895613019F48FEF87BB0895611102C0A3
:1001900017BA089587B3682B67BB0895613019F4C7
:1001A0008FEF84BB0895611102C014BA089584B31F
:1001B000682B64BB0895613019F48FEF81BB0895FB
:1001C000611102C011BA089584B3682B64BB08950D
:1001D000813001F130F08230B1F1833009F44CC04C
:1001E0000895413059F42BB381E090E002C0880FAC
:1001F000991F6A95E2F7822B8BBB08952BB381E0A0
:1002000090E002C0880F991F6A95E2F780958223DB
:100210008BBB0895413059F428B381E090E002C0CF
:10022000880F991F6A95E2F7822B88BB089528B33F
:1002300081E090E002C0880F991F6A95E2F78095EF
:10024000822388BB0895413059F425B381E090E0C2
:1002500002C0880F991F6A95E2F7822B85BB08952B
:1002600025B381E090E002C0880F991F6A95E2F7FC
:100270008095822385BB0895413059F422B381E0F3
:1002800090E002C0880F991F6A95E2F7822B82BB2B
:10029000089522B381E090E002C0880F991F6A950B
:1002A000E2F78095822382BB0895813041F028F0E7
:1002B000823039F0833039F008956BBB089568BB04
:1002C000089565BB089562BB0895813081F028F0E0
:1002D0008230B9F08330F9F028C029B381E090E092
:1002E00002C0880F991F6A95E2F78223089526B30A
:1002F00081E090E002C0880F991F6A95E2F782239F
:10030000089523B381E090E002C0880F991F6A9599
:10031000E2F78223089520B381E090E002C0880FC5
:10032000991F6A95E2F78223089580E0089581304D
:1003300041F028F0823039F0833039F008C089B3B9
:10034000089586B3089583B3089580B3089580E037
:1003500008950E9436006FEF80E00E94AC0041E0FB
:1003600060E081E00E943F0061E082E00E94AC001A
:1003700060E083E00E94AC0041E060E081E00E9428
:10038000E8006FE080E00E9455012FEF89E698E1D8
:10039000215080409040E1F700C0000063E080E021
:1003A0000E9455012FEF89E698E12150804090404E
:1003B000E1F700C0000060E080E00E9455016FEFAF
:1003C00083E00E94550160E083E00E946501811195
:1003D00005C040E060E081E00E94E80083E00E9408
:1003E00097018D3F81F76FE080E00E945501EBCFD0
:0403F000F894FFCFAF
:00000001FF
