:100000000C942A000C943F000C943F000C943F0089
:100010000C943F000C943F000C943F000C943F0064
:100020000C943F000C943F000C943F000C943F0054
:100030000C943F000C943F000C943F000C943F0044
:100040000C943F000C943F000C943F000C943F0034
:100050000C943F0011241FBECFE5D8E0DEBFCDBF1A
:1000600010E0A0E6B0E0E0E1F6E002C005900D92FD
:10007000A836B107D9F70E94D7020C9406030C9456
:100080000000379A3F983E9A3D98309A319A329ABA
:10009000089597B1907E892B87B9369A3499FECF0F
:1000A000349A84B125B190E0922B0895813001F10A
:1000B00030F08230B1F1833009F44CC00895413002
:1000C00059F42AB381E090E002C0880F991F6A9525
:1000D000E2F7822B8ABB08952AB381E090E002C048
:1000E000880F991F6A95E2F7809582238ABB08954D
:1000F000413059F427B381E090E002C0880F991F86
:100100006A95E2F7822B87BB089527B381E090E0E0
:1001100002C0880F991F6A95E2F78095822387BBFA
:100120000895413059F424B381E090E002C0880F73
:10013000991F6A95E2F7822B84BB089524B381E06E
:1001400090E002C0880F991F6A95E2F7809582239C
:1001500084BB0895413059F421B381E090E002C09E
:10016000880F991F6A95E2F7822B81BB089521B30E
:1001700081E090E002C0880F991F6A95E2F78095B0
:10018000822381BB0895813099F028F08230E9F014
:10019000833041F10895613019F48FEF8ABB0895DF
:1001A000611102C01ABA08958AB3682B6ABB089518
:1001B000613019F48FEF87BB0895611102C017BA3F
:1001C000089587B3682B67BB0895613019F48FEFEA
:1001D00084BB0895611102C014BA089584B3682BDA
:1001E00064BB0895613019F48FEF81BB08956111EC
:1001F00002C011BA089584B3682B64BB089581309E
:1002000001F130F08230B1F1833009F44CC008952F
:10021000413059F42BB381E090E002C0880F991F60
:100220006A95E2F7822B8BBB08952BB381E090E0B7
:1002300002C0880F991F6A95E2F7809582238BBBD5
:100240000895413059F428B381E090E002C0880F4E
:10025000991F6A95E2F7822B88BB089528B381E045
:1002600090E002C0880F991F6A95E2F7809582237B
:1002700088BB0895413059F425B381E090E002C075
:10028000880F991F6A95E2F7822B85BB089525B3E5
:1002900081E090E002C0880F991F6A95E2F780958F
:1002A000822385BB0895413059F422B381E090E068
:1002B00002C0880F991F6A95E2F7822B82BB0895CE
:1002C00022B381E090E002C0880F991F6A95E2F79F
:1002D0008095822382BB0895813041F028F08230DE
:1002E00039F0833039F008956BBB089568BB0895E9
:1002F00065BB089562BB0895CF93C82F40E060E0CE
:1003000082E00E94FF0040E061E082E00E94FF0086
:1003100041E062E082E00E94FF006C2F607F83E09A
:100320000E946C0140E062E082E00E94FF008FECDE
:1003300097E00197F1F700C0000041E062E082E041
:100340000E94FF008FEC97E00197F1F700C00000DA
:100350006C2F6295607F83E00E946C0140E062E058
:1003600082E00E94FF008FEC97E00197F1F700C058
:10037000000041E062E082E00E94FF008FEC97E025
:100380000197F1F700C00000CF91089541E060E0CF
:1003900082E00E94560041E062E082E00E94560046
:1003A00041E061E082E00E94560060EF83E00E943D
:1003B000C3002FE788E391E0215080409040E1F7AF
:1003C00000C0000082E00E947C018FEC97E0019762
:1003D000F1F700C0000088E20E947C018FEC97E0FA
:1003E0000197F1F700C000008CE00E947C018FECC7
:1003F00097E00197F1F700C0000081E00E947C01C6
:100400008FE39CE90197F1F700C0000086E00E94AD
:100410007C0180E80E947C018FE99FE00197F1F761
:1004200000C000000895CF93C82F41E060E082E053
:100430000E94FF0040E061E082E00E94FF0041E096
:1004400062E082E00E94FF006C2F607F83E00E94E8
:100450006C0140E062E082E00E94FF008FE99FE0D3
:100460000197F1F700C0000041E062E082E00E94E5
:10047000FF008FE99FE00197F1F700C000006C2FAB
:100480006295607F83E00E946C0140E062E082E060
:100490000E94FF008FE99FE00197F1F700C0000084
:1004A00041E062E082E00E94FF008FE99FE0019757
:1004B000F1F700C00000CF9108950F931F93CF93E1
:1004C000FC018081882389F08F01C0E00E94130223
:1004D0008FE99FE00197F1F700C00000CF5FF801BE
:1004E000EC0FF11D80818111F1CFCF911F910F9100
:1004F00008951F93CF93DF93CDB7DEB72A970FB63A
:10050000F894DEBF0FBECDBFAC01892B21F480E390
:100510000E9413023BC010E0E1E0F0E0EC0FFD1F91
:10052000E10FF11D9A01ADECBCEC0E94F70296952B
:10053000879596958795969587959C01220F331FF1
:10054000880F991F880F991F880F991F820F931F7B
:100550009A01281B390BC901805D80839A010E9492
:10056000F702AC0156954795569547955695479590
:100570001F5F4115510581F6112341F0FE01E10F86
:10058000F11D80810E9413021150C1F72A960FB607
:10059000F894DEBF0FBECDBFDF91CF911F910895BC
:1005A00081E00E947C0182E00E947C0108950E940B
:1005B00041000E94C60180E00E9449000E94D002D2
:1005C00080E00E944900EC0180E690E00E945D021C
:1005D000CE01969587950E9479022FE986E891E0F1
:1005E000215080409040E1F700C00000E7CFA29F7B
:1005F000B001B39FC001A39F700D811D1124911DF7
:10060000B29F700D811D1124911D0895F894FFCFA4
:0806100054656D703A200000F2
:00000001FF
