:100000000C942A000C943C010C9465010C948E0114
:100010000C943C000C943C000C943C000C943C0070
:100020000C943C000C943C000C943C000C943C0060
:100030000C943C000C943C000C943C000C943C0050
:100040000C943C000C943C000C943C000C943C0040
:100050000C943C0011241FBECFE5D8E0DEBFCDBF1D
:1000600020E0A0E6B0E001C01D92A736B207E1F79C
:100070000E94FB010C941E020C94000087E08ABBD6
:1000800017BA14BA11BA1BBA18BA15BA12BA089527
:10009000813001F130F08230B1F1833009F44CC08D
:1000A0000895413059F42BB381E090E002C0880FED
:1000B000991F6A95E2F7822B8BBB08952BB381E0E1
:1000C00090E002C0880F991F6A95E2F7809582231D
:1000D0008BBB0895413059F428B381E090E002C011
:1000E000880F991F6A95E2F7822B88BB089528B381
:1000F00081E090E002C0880F991F6A95E2F7809531
:10010000822388BB0895413059F425B381E090E003
:1001100002C0880F991F6A95E2F7822B85BB08956C
:1001200025B381E090E002C0880F991F6A95E2F73D
:100130008095822385BB0895413059F422B381E034
:1001400090E002C0880F991F6A95E2F7822B82BB6C
:10015000089522B381E090E002C0880F991F6A954C
:10016000E2F78095822382BB0895813041F018F038
:10017000823049F008958BB780648BBF08958BB7A8
:1001800080688BBF08958BB780628BBF08958130E4
:1001900049F120F0823009F449C00895613069F0D6
:1001A00028F0623089F06330B1F0089585B78E7F12
:1001B00085BF85B78D7F85BF089585B7816085BF71
:1001C00085B78D7F85BF089585B78E7F85BF85B73D
:1001D000826085BF089585B7816085BF85B78260DD
:1001E00085BF0895613069F028F0623089F063308E
:1001F000B1F0089585B78B7F85BF85B7877F85BFB1
:10020000089585B7846085BF85B7877F85BF0895CA
:1002100085B78B7F85BF85B7886085BF089585B713
:10022000846085BF85B7886085BF0895623019F006
:10023000633029F008C084B78F7B84BF089584B7EA
:10024000806484BF089584B78F7B84BF0895813014
:1002500049F018F0823059F008957093650060936A
:100260006400089570936300609362000895709332
:1002700061006093600008951F920F920FB60F9275
:1002800011242F933F934F935F936F937F938F939B
:100290009F93AF93BF93EF93FF93E0916400F0912E
:1002A0006500309709F00995FF91EF91BF91AF91EB
:1002B0009F918F917F916F915F914F913F912F917E
:1002C0000F900FBE0F901F9018951F920F920FB6B0
:1002D0000F9211242F933F934F935F936F937F93CC
:1002E0008F939F93AF93BF93EF93FF93E09162003F
:1002F000F0916300309709F00995FF91EF91BF915C
:10030000AF919F918F917F916F915F914F913F91AD
:100310002F910F900FBE0F901F9018951F920F9264
:100320000FB60F9211242F933F934F935F936F93C8
:100330007F938F939F93AF93BF93EF93FF93E0913E
:100340006000F0916100309709F00995FF91EF91FD
:10035000BF91AF919F918F917F916F915F914F91DD
:100360003F912F910F900FBE0F901F90189541E075
:1003700060E080E00E9448002FEF84E39CE0215081
:1003800080409040E1F700C0000040E060E080E085
:100390000E94480081E080936600089541E061E09A
:1003A00080E00E9448002FEF84E39CE021508040D1
:1003B0009040E1F700C0000040E061E080E00E9472
:1003C000480082E080936600089541E062E080E0AA
:1003D0000E9448002FEF84E39CE021508040904031
:1003E000E1F700C0000040E062E080E00E944800C9
:1003F00010926600089578940E943E0062E080E0CA
:100400000E94C70080E00E94B500809166008111C3
:1004100005C067EB71E00E942701F7CF813031F40E
:100420006EEC71E080E00E942701EFCF823069F727
:1004300065EE71E080E00E942701E7CFF894FFCFDE
:00000001FF
