S014000054696D65725F4472697665722E7372656344
S11300000C942A000C943C000C943C000C943C008E
S11300100C9470010C9447010C941E010C94CC00B8
S11300200C94F5000C94A3000C947A000C945100E9
S11300300C943C000C943C000C943C000C943C004C
S11300400C943C000C943C000C943C000C943C003C
S11300500C943C0011241FBECFE5D8E0DEBFCDBF19
S113006020E0A0E6B0E001C01D92AA36B207E1F795
S11300700E943E000C949C010C9400000E94990183
S11300808FEF81BB12BA82B3805882BB2FE782E123
S113009091E3215080409040E1F700C00000A89512
S11300A0F2CF1F920F920FB60F9211242F933F930A
S11300B04F935F936F937F938F939F93AF93BF936C
S11300C0EF93FF93E0916800F0916900309709F095
S11300D00995FF91EF91BF91AF919F918F917F917E
S11300E06F915F914F913F912F910F900FBE0F90A1
S11300F01F9018951F920F920FB60F9211242F93F1
S11301003F934F935F936F937F938F939F93AF939B
S1130110BF93EF93FF93E0916800F09169003097EB
S113012009F00995FF91EF91BF91AF919F918F9144
S11301307F916F915F914F913F912F910F900FBEDF
S11301400F901F9018951F920F920FB60F921124C3
S11301502F933F934F935F936F937F938F939F93CB
S1130160AF93BF93EF93FF93E0916600F091670024
S1130170309709F00995FF91EF91BF91AF919F914D
S11301808F917F916F915F914F913F912F910F903C
S11301900FBE0F901F9018951F920F920FB60F92DB
S11301A011242F933F934F935F936F937F938F9378
S11301B09F93AF93BF93EF93FF93E0916400F0910B
S11301C06500309709F00995FF91EF91BF91AF91C8
S11301D09F918F917F916F915F914F913F912F915B
S11301E00F900FBE0F901F9018951F920F920FB68D
S11301F00F9211242F933F934F935F936F937F93A9
S11302008F939F93AF93BF93EF93FF93E091640019
S1130210F0916500309709F00995FF91EF91BF9136
S1130220AF919F918F917F916F915F914F913F918A
S11302302F910F900FBE0F901F9018951F920F9241
S11302400FB60F9211242F933F934F935F936F93A5
S11302507F938F939F93AF93BF93EF93FF93E0911B
S11302606200F0916300309709F00995FF91EF91D6
S1130270BF91AF919F918F917F916F915F914F91BA
S11302803F912F910F900FBE0F901F9018951F92C2
S11302900F920FB60F9211242F933F934F935F93B6
S11302A06F937F938F939F93AF93BF93EF93FF933A
S11302B0E0916000F0916100309709F00995FF9199
S11302C0EF91BF91AF919F918F917F916F915F91CA
S11302D04F913F912F910F900FBE0F901F90189543
S11302E01F920F920FB60F9211242F933F934F93A7
S11302F05F936F937F938F939F93AF93BF93EF938A
S1130300FF93E0916000F0916100309709F0099546
S1130310FF91EF91BF91AF919F918F917F916F91D9
S11303205F914F913F912F910F900FBE0F901F90AF
S10F033018958EE081BD0895F894FFCF6D
S9030000FC
