:100000000C942A000C9434000C9434000C943400AA
:100010000C9434000C9434000C9434000C94340090
:100020000C9434000C9434000C9434000C94340080
:100030000C9434000C9434000C9434000C94340070
:100040000C9434000C9434000C9434000C94340060
:100050000C94340011241FBECFE5D8E0DEBFCDBF25
:100060000E9417020C9430020C940000813001F1C0
:1000700030F08230B1F1833009F44CC00895413042
:1000800059F42AB381E090E002C0880F991F6A9565
:10009000E2F7822B8ABB08952AB381E090E002C088
:1000A000880F991F6A95E2F7809582238ABB08958D
:1000B000413059F427B381E090E002C0880F991FC6
:1000C0006A95E2F7822B87BB089527B381E090E021
:1000D00002C0880F991F6A95E2F78095822387BB3B
:1000E0000895413059F424B381E090E002C0880FB4
:1000F000991F6A95E2F7822B84BB089524B381E0AF
:1001000090E002C0880F991F6A95E2F780958223DC
:1001100084BB0895413059F421B381E090E002C0DE
:10012000880F991F6A95E2F7822B81BB089521B34E
:1001300081E090E002C0880F991F6A95E2F78095F0
:10014000822381BB0895813099F028F08230E9F054
:10015000833041F10895613019F48FEF8ABB08951F
:10016000611102C01ABA08958AB3682B6ABB089558
:10017000613019F48FEF87BB0895611102C017BA7F
:10018000089587B3682B67BB0895613019F48FEF2A
:1001900084BB0895611102C014BA089584B3682B1A
:1001A00064BB0895613019F48FEF81BB089561112C
:1001B00002C011BA089584B3682B64BB08958130DE
:1001C00001F130F08230B1F1833009F44CC0089570
:1001D000413059F42BB381E090E002C0880F991FA1
:1001E0006A95E2F7822B8BBB08952BB381E090E0F8
:1001F00002C0880F991F6A95E2F7809582238BBB16
:100200000895413059F428B381E090E002C0880F8E
:10021000991F6A95E2F7822B88BB089528B381E085
:1002200090E002C0880F991F6A95E2F780958223BB
:1002300088BB0895413059F425B381E090E002C0B5
:10024000880F991F6A95E2F7822B85BB089525B325
:1002500081E090E002C0880F991F6A95E2F78095CF
:10026000822385BB0895413059F422B381E090E0A8
:1002700002C0880F991F6A95E2F7822B82BB08950E
:1002800022B381E090E002C0880F991F6A95E2F7DF
:100290008095822382BB0895813041F028F082301E
:1002A00039F0833039F008956BBB089568BB089529
:1002B00065BB089562BB0895813081F028F08230DB
:1002C000B9F08330F9F028C029B381E090E002C092
:1002D000880F991F6A95E2F78223089526B381E07B
:1002E00090E002C0880F991F6A95E2F78223089573
:1002F00023B381E090E002C0880F991F6A95E2F76E
:100300008223089520B381E090E002C0880F991FF6
:100310006A95E2F78223089580E0089541E060E065
:1003200080E00E94360041E061E080E00E943600FB
:1003300041E062E080E00E94360041E063E080E05E
:100340000E94360040E064E080E00E94360040E019
:1003500065E080E00E94360040E066E080E00E94B8
:10036000360041E064E080E00E94DF0041E065E0AB
:1003700080E00E94DF0041E066E080E00E94DF0054
:1003800008951F93CF93DF9310E041E060E080E099
:100390000E94DF0041E061E080E00E94DF0041E078
:1003A00062E080E00E94DF0041E063E080E00E94C4
:1003B000DF008FE39CE90197F1F700C0000040E007
:1003C000612F80E00E94DF00C0E0D4E0DC0F6D2FE1
:1003D00080E00E945C0181111EC08FE19EE40197C4
:1003E000F1F700C000006D2F80E00E945C018111D8
:1003F00012C0CF5F912F990F190FC10FCB3099F019
:10040000CC3019F0CA3019F404C083E20CC08C2F30
:100410000AC08AE208C0CF5FC330B9F61F5F14304C
:1004200009F0B3CFB1CFDF91CF911F9108950E9412
:100430008E0161E082E00E94A30060EF82E00E94F2
:100440004C010E94C101EFE1FEE43197F1F700C0D9
:1004500000008A30B0F7682F82E00E944C01F1CF93
:04046000F894FFCF3E
:00000001FF
