S01100005350495F736C6176652E73726563AD
S11300000C9434000C943E000C943E000C943E007E
S11300100C943E000C943E000C943E000C943E0064
S11300200C943E000C943E000C943E000C943E0054
S11300300C943E000C943E000C943E000C943E0044
S11300400C943E000C943E000C943E000C943E0034
S11300500C943E004E01630178018D01A201B701A9
S1130060CC01E101F6010B0211241FBECFE5D8E05B
S1130070DEBFCDBF0E9424010C9459020C940000F1
S11300801ABA17BA8FE084BB11BA1BBA18BA15BAD8
S113009012BA0895813001F130F08230B1F1833029
S11300A009F44CC00895413059F42AB381E090E03A
S11300B002C0880F991F6A95E2F7822B8ABB0895C4
S11300C02AB381E090E002C0880F991F6A95E2F795
S11300D0809582238ABB0895413059F427B381E087
S11300E090E002C0880F991F6A95E2F7822B87BBC4
S11300F0089527B381E090E002C0880F991F6A95A4
S1130100E2F78095822387BB0895413059F424B3E4
S113011081E090E002C0880F991F6A95E2F7822B74
S113012084BB089524B381E090E002C0880F991F36
S11301306A95E2F78095822384BB0895413059F48F
S113014021B381E090E002C0880F991F6A95E2F71D
S1130150822B81BB089521B381E090E002C0880F17
S1130160991F6A95E2F78095822381BB08958130B7
S113017001F130F08230B1F1833009F44CC00895BC
S1130180413059F42BB381E090E002C0880F991FED
S11301906A95E2F7822B8BBB08952BB381E090E044
S11301A002C0880F991F6A95E2F7809582238BBB62
S11301B00895413059F428B381E090E002C0880FDB
S11301C0991F6A95E2F7822B88BB089528B381E0D2
S11301D090E002C0880F991F6A95E2F78095822308
S11301E088BB0895413059F425B381E090E002C002
S11301F0880F991F6A95E2F7822B85BB089525B372
S113020081E090E002C0880F991F6A95E2F780951B
S1130210822385BB0895413059F422B381E090E0F4
S113022002C0880F991F6A95E2F7822B82BB08955A
S113023022B381E090E002C0880F991F6A95E2F72B
S11302408095822382BB08950E9440000E94480248
S11302500E9420020E944F020E9444012FEF80E777
S113026092E0215080409040E1F700C00000F2CFBE
S1130270482F60E082E00E944A000895482F61E020
S113028082E00E944A00089590E08A30910508F0C7
S1130290D6C0FC01E65DFF4F0C94530240E060E0E1
S11302A082E00E94B70040E061E082E00E94B70073
S11302B040E062E082E00E94B70040E063E082E058
S11302C00E94B700089541E060E082E00E94B70018
S11302D040E061E082E00E94B70040E062E082E03A
S11302E00E94B70040E063E082E00E94B7000895F6
S11302F040E060E082E00E94B70041E061E082E01B
S11303000E94B70040E062E082E00E94B70040E053
S113031063E082E00E94B700089541E060E082E07B
S11303200E94B70041E061E082E00E94B70040E033
S113033062E082E00E94B70040E063E082E00E9455
S1130340B700089540E060E082E00E94B70040E01A
S113035061E082E00E94B70041E062E082E00E9436
S1130360B70040E063E082E00E94B700089541E0F6
S113037060E082E00E94B70040E061E082E00E9419
S1130380B70041E062E082E00E94B70040E063E031
S113039082E00E94B700089540E060E082E00E949D
S11303A0B70041E061E082E00E94B70041E062E012
S11303B082E00E94B70040E063E082E00E94B70060
S11303C0089541E060E082E00E94B70041E061E00E
S11303D082E00E94B70041E062E082E00E94B70040
S11303E040E063E082E00E94B700089540E060E0EE
S11303F082E00E94B70040E061E082E00E94B70022
S113040040E062E082E00E94B70041E063E082E005
S11304100E94B700089541E060E082E00E94B700C6
S113042040E061E082E00E94B70040E062E082E0E8
S11304300E94B70041E063E082E00E94B7000895A3
S113044041E060E082E00E944A0041E061E082E035
S11304500E944A0041E062E082E00E944A0041E0DA
S113046063E082E00E944A0041E060E082E00E9492
S11304704A0041E061E082E00E944A0081E00E947B
S1130480380181E00E943E0180E00E944401089509
S1130490BC98BD98BE9ABF9880E48DB90895779BA7
S11304A0FECF8FB10895EE0FFF1F0590F491E02D5C
S10904B00994F894FFCF4B
S9030000FC
