:100000000C9439000C944B000C944B000C944B0056
:100010000C94D2020C94A9020C9480020C942E022F
:100020000C9457020C9405020C94BD000C9494009F
:100030000C944B000C944B000C944B000C944B0014
:100040000C944B000C944B000C944B000C944B0004
:100050000C944B00F000FD000A011701240131014E
:100060003E014B015801650172017F018C0199012C
:10007000A60111241FBECFE5D8E0DEBFCDBF20E032
:10008000A0E6B0E001C01D92AA36B207E1F70E94D7
:100090004D000C949D040C9400000E946B0081B3F1
:1000A000806381BB80E00E947A002FEF83E294EFAF
:1000B000215080409040E1F700C000008AE50E9496
:1000C0007A002FEF83E294EF215080409040E1F7D7
:1000D00000C00000E7CF23E043E063E08DE00E9432
:1000E000E6008FE19EE497BD86BD81E690E099BD74
:1000F00088BD089524E6829FC0011124BC0180E0E0
:1001000090E00E94090426E636E644E252E40E94AA
:10011000680320E030E042EC52E40E94FC020E94BE
:10012000DA0379BD68BD08951F920F920FB60F9242
:1001300011242F933F934F935F936F937F938F93EC
:100140009F93AF93BF93EF93FF93E0916800F0917B
:100150006900309709F00995FF91EF91BF91AF9138
:100160009F918F917F916F915F914F913F912F91CF
:100170000F900FBE0F901F9018951F920F920FB601
:100180000F9211242F933F934F935F936F937F931D
:100190008F939F93AF93BF93EF93FF93E09168008A
:1001A000F0916900309709F00995FF91EF91BF91A7
:1001B000AF919F918F917F916F915F914F913F91FF
:1001C0002F910F900FBE0F901F90189590E08F30D9
:1001D000910508F0C7C0FC01E65DFF4F0C94970441
:1001E0008FB58E7F8FBD8FB58D7F8FBD8EB5877F8D
:1001F0008EBD8EB58F7E8EBDB5C08FB581608FBD33
:100200008FB58D7F8FBD8EB5877F8EBD8EB58F7E6E
:100210008EBDA8C08FB58E7F8FBD8FB582608FBD1C
:100220008EB5877F8EBD8EB58F7E8EBD9BC08FB500
:1002300081608FBD8FB582608FBD8EB5877F8EBD8B
:100240008EB58F7E8EBD8EC08FB58E7F8FBD8FB5E4
:100250008D7F8FBD8EB588608EBD8EB58F7E8EBD35
:1002600081C08FB581608FBD8FB58D7F8FBD8EB5FD
:1002700088608EBD8EB58F7E8EBD74C08FB58E7F2B
:100280008FBD8FB582608FBD8EB588608EBD8EB5F7
:100290008F7E8EBD67C08FB581608FBD8FB5826048
:1002A0008FBD8EB588608EBD8EB58F7E8EBD5AC0D7
:1002B0008FB58E7F8FBD8FB58D7F8FBD8EB5877FBC
:1002C0008EBD8EB580618EBD4DC08FB581608FBDF6
:1002D0008FB58D7F8FBD8EB5877F8EBD8EB58061CA
:1002E0008EBD40C08FB58E7F8FBD8FB582608FBDB4
:1002F0008EB5877F8EBD8EB580618EBD33C08FB5C4
:1003000081608FBD8FB582608FBD8EB5877F8EBDBA
:100310008EB580618EBD26C08FB58E7F8FBD8FB5A7
:100320008D7F8FBD8EB588608EBD8EB580618EBD90
:1003300019C08FB58E7F8FBD8FB582608FBD8EB592
:1003400088608EBD8EB580618EBD0CC08FB581601A
:100350008FBD8FB582608FBD8EB588608EBD8EB526
:1003600080618EBD413069F028F04230C1F04330E9
:1003700079F01BC08FB58F7B8FBD8FB58F778FBD09
:1003800014C08FB580648FBD8FB58F778FBD0DC0C2
:100390008FB58F7B8FBD8FB580688FBD06C08FB541
:1003A00080648FBD8FB580688FBD213069F028F0E3
:1003B0002230C1F0233079F01BC08FB58F7E8FBD06
:1003C0008FB58F7D8FBD14C08FB580618FBD8FB508
:1003D0008F7D8FBD0DC08FB58F7E8FBD8FB5806235
:1003E0008FBD06C08FB580618FBD8FB580628FBD18
:1003F0008EB58E7F8EBD8EB58D7F8EBD8EB58B7F7B
:100400008EBD8EB5682B6EBD08951F920F920FB6EC
:100410000F9211242F933F934F935F936F937F938A
:100420008F939F93AF93BF93EF93FF93E0916600F9
:10043000F0916700309709F00995FF91EF91BF9116
:10044000AF919F918F917F916F915F914F913F916C
:100450002F910F900FBE0F901F9018951F920F9223
:100460000FB60F9211242F933F934F935F936F9387
:100470007F938F939F93AF93BF93EF93FF93E091FD
:100480006400F0916500309709F00995FF91EF91B4
:10049000BF91AF919F918F917F916F915F914F919C
:1004A0003F912F910F900FBE0F901F9018951F92A4
:1004B0000F920FB60F9211242F933F934F935F9398
:1004C0006F937F938F939F93AF93BF93EF93FF931C
:1004D000E0916400F0916500309709F00995FF9173
:1004E000EF91BF91AF919F918F917F916F915F91AC
:1004F0004F913F912F910F900FBE0F901F90189525
:100500001F920F920FB60F9211242F933F934F9388
:100510005F936F937F938F939F93AF93BF93EF936B
:10052000FF93E0916200F0916300309709F0099524
:10053000FF91EF91BF91AF919F918F917F916F91BB
:100540005F914F913F912F910F900FBE0F901F9091
:1005500018951F920F920FB60F9211242F933F936D
:100560004F935F936F937F938F939F93AF93BF93BB
:10057000EF93FF93E0916000F0916100309709F0F4
:100580000995FF91EF91BF91AF919F918F917F91CD
:100590006F915F914F913F912F910F900FBE0F90F0
:1005A0001F9018951F920F920FB60F9211242F9340
:1005B0003F934F935F936F937F938F939F93AF93EB
:1005C000BF93EF93FF93E0916000F091610030974B
:1005D00009F00995FF91EF91BF91AF919F918F9194
:1005E0007F916F915F914F913F912F910F900FBE2F
:1005F0000F901F9018955058BB27AA270E941303ED
:100600000C945D040E944F0438F00E94560420F0C0
:1006100039F49F3F19F426F40C944C040EF4E09541
:10062000E7FB0C944604E92F0E946E0458F3BA17B6
:10063000620773078407950720F079F4A6F50C94F8
:1006400090040EF4E0950B2EBA2FA02D0B01B901EA
:1006500090010C01CA01A0011124FF27591B99F038
:10066000593F50F4503E68F11A16F040A22F232F44
:10067000342F4427585FF3CF469537952795A79594
:10068000F0405395C9F77EF41F16BA0B620B730B3B
:10069000840BBAF09150A1F0FF0FBB1F661F771FAC
:1006A000881FC2F70EC0BA0F621F731F841F48F461
:1006B000879577956795B795F7959E3F08F0B0CFEA
:1006C0009395880F08F09927EE0F979587950895D1
:1006D0000E947C030C945D040E94560458F00E9412
:1006E0004F0440F029F45F3F29F00C944604511167
:1006F0000C9491040C944C040E946E0468F39923AA
:10070000B1F3552391F3951B550BBB27AA2762170D
:100710007307840738F09F5F5F4F220F331F441F1A
:10072000AA1FA9F335D00E2E3AF0E0E832D091504E
:100730005040E695001CCAF72BD0FE2F29D0660F3B
:10074000771F881FBB1F261737074807AB07B0E87E
:1007500009F0BB0B802DBF01FF2793585F4F3AF084
:100760009E3F510578F00C9446040C9491045F3F31
:10077000E4F3983ED4F3869577956795B795F7950A
:100780009F5FC9F7880F911D9695879597F90895F2
:10079000E1E0660F771F881FBB1F6217730784078E
:1007A000BA0720F0621B730B840BBA0BEE1F88F79D
:1007B000E09508950E94760488F09F5798F0B92F2D
:1007C0009927B751B0F0E1F0660F771F881F991F86
:1007D0001AF0BA95C9F714C0B13091F00E94900494
:1007E000B1E008950C949004672F782F8827B85FA4
:1007F00039F0B93FCCF3869577956795B395D9F7DE
:100800003EF490958095709561957F4F8F4F9F4FE7
:100810000895E89409C097FB3EF4909580957095F3
:1008200061957F4F8F4F9F4F9923A9F0F92F96E93C
:10083000BB279395F695879577956795B795F111B1
:10084000F8CFFAF4BB0F11F460FF1BC06F5F7F4F4E
:100850008F4F9F4F16C0882311F096E911C0772360
:1008600021F09EE8872F762F05C0662371F096E869
:10087000862F70E060E02AF09A95660F771F881F38
:10088000DAF7880F9695879597F9089597F99F67F6
:1008900080E870E060E008959FEF80EC0895002408
:1008A0000A941616170618060906089500240A94D5
:1008B00012161306140605060895092E0394000C5B
:1008C00011F4882352F0BB0F40F4BF2B11F460FFEA
:1008D00004C06F5F7F4F8F4F9F4F089557FD905813
:1008E000440F551F59F05F3F71F04795880F97FBF4
:1008F000991F61F09F3F79F08795089512161306AE
:100900001406551FF2CF4695F1DF08C016161706DC
:100910001806991FF1CF8695710561050894089511
:10092000E894BB2766277727CB0197F90895EE0F48
:0E093000FF1F0590F491E02D0994F894FFCF7D
:00000001FF
