:100000000C9434000C943E000C943E000C943E0082
:100010000C943E000C943E000C943E000C943E0068
:100020000C943E000C943E000C943E000C943E0058
:100030000C943E000C943E000C943E000C943E0048
:100040000C943E000C943E000C943E000C943E0038
:100050000C943E00F40109021E02330248025D02C4
:10006000720287029C02B10211241FBECFE5D8E0C4
:10007000DEBFCDBF0E944C010C94F4020C94000032
:10008000813001F130F08230B1F1833009F44CC09D
:100090000895413059F42AB381E090E002C0880FFE
:1000A000991F6A95E2F7822B8ABB08952AB381E0F3
:1000B00090E002C0880F991F6A95E2F7809582232D
:1000C0008ABB0895413059F427B381E090E002C023
:1000D000880F991F6A95E2F7822B87BB089527B393
:1000E00081E090E002C0880F991F6A95E2F7809541
:1000F000822387BB0895413059F424B381E090E016
:1001000002C0880F991F6A95E2F7822B84BB08957D
:1001100024B381E090E002C0880F991F6A95E2F74E
:100120008095822384BB0895413059F421B381E046
:1001300090E002C0880F991F6A95E2F7822B81BB7D
:10014000089521B381E090E002C0880F991F6A955D
:10015000E2F78095822381BB0895813001F130F070
:100160008230B1F1833009F44CC00895413059F424
:100170002BB381E090E002C0880F991F6A95E2F7E7
:10018000822B8BBB08952BB381E090E002C0880FD7
:10019000991F6A95E2F7809582238BBB08954130C1
:1001A00059F428B381E090E002C0880F991F6A9546
:1001B000E2F7822B88BB089528B381E090E002C06B
:1001C000880F991F6A95E2F78095822388BB08956E
:1001D000413059F425B381E090E002C0880F991FA7
:1001E0006A95E2F7822B85BB089525B381E090E004
:1001F00002C0880F991F6A95E2F78095822385BB1C
:100200000895413059F422B381E090E002C0880F94
:10021000991F6A95E2F7822B82BB089522B381E091
:1002200090E002C0880F991F6A95E2F780958223BB
:1002300082BB0895813081F028F08230B9F083309C
:10024000F9F028C029B381E090E002C0880F991F1F
:100250006A95E2F78223089526B381E090E002C018
:10026000880F991F6A95E2F78223089523B381E0EE
:1002700090E002C0880F991F6A95E2F782230895E3
:1002800020B381E090E002C0880F991F6A95E2F7E1
:100290008223089580E008950E94C60280E00E94B3
:1002A000E40140E060E080E00E94400040E061E066
:1002B00080E00E94400041E060E080E00E94AD00EC
:1002C00041E061E080E00E94AD0041E060E081E05B
:1002D0000E94400041E061E081E00E94400040E077
:1002E00060E081E00E94AD0040E061E081E00E94BA
:1002F000AD00C0E060E080E00E941A01811118C0EA
:1003000060E080E00E941A018823D1F3CF5F8C2F38
:100310000E94EA01C93061F441E060E081E00E949E
:10032000AD0061E080E00E941A01882341F03BC0EB
:1003300061E080E00E941A0181111EC001C0C0E08E
:1003400061E080E00E941A018823D1F3C1508C2F14
:100350000E94EA01C11110C041E061E081E00E9409
:10036000AD002FE38DE093E0215080409040E1F715
:1003700000C00000C1E00CC02FE38DE093E02150ED
:1003800080409040E1F700C00000C23008F0B2CFDA
:1003900040E060E081E00E94AD0040E061E081E08B
:1003A0000E94AD00A7CF2FE38DE093E02150804065
:1003B0009040E1F700C00000C0E0EACF482F60E0C5
:1003C00082E00E9440000895482F61E082E00E9490
:1003D0004000089590E08A30910508F0D6C0FC01F5
:1003E000E65DFF4F0C94EE0240E060E083E00E9487
:1003F000AD0040E061E083E00E94AD0040E062E0DB
:1004000083E00E94AD0040E063E083E00E94AD0025
:10041000089541E060E083E00E94AD0040E061E0CB
:1004200083E00E94AD0040E062E083E00E94AD0006
:1004300040E063E083E00E94AD00089540E060E0AA
:1004400083E00E94AD0041E061E083E00E94AD00E6
:1004500040E062E083E00E94AD0040E063E083E0C2
:100460000E94AD00089541E060E083E00E94AD008D
:1004700041E061E083E00E94AD0040E062E083E0A3
:100480000E94AD0040E063E083E00E94AD0008956B
:1004900040E060E083E00E94AD0040E061E083E086
:1004A0000E94AD0041E062E083E00E94AD0040E0C8
:1004B00063E083E00E94AD00089541E060E083E0E6
:1004C0000E94AD0040E061E083E00E94AD0041E0A9
:1004D00062E083E00E94AD0040E063E083E00E94C0
:1004E000AD00089540E060E083E00E94AD0041E08F
:1004F00061E083E00E94AD0041E062E083E00E94A1
:10050000AD0040E063E083E00E94AD00089541E06B
:1005100060E083E00E94AD0041E061E083E00E9482
:10052000AD0041E062E083E00E94AD0040E063E0A6
:1005300083E00E94AD00089540E060E083E00E9407
:10054000AD0040E061E083E00E94AD0040E062E089
:1005500083E00E94AD0041E063E083E00E94AD00D3
:10056000089541E060E083E00E94AD0040E061E07A
:1005700083E00E94AD0040E062E083E00E94AD00B5
:1005800041E063E083E00E94AD00089541E060E057
:1005900083E00E94400041E061E083E00E9440006F
:1005A00041E062E083E00E94400041E063E083E0DC
:1005B0000E94400041E060E082E00E94400041E093
:1005C00061E082E00E94400081E00E94DE0181E063
:1005D0000E94E40180E00E94EA010895EE0FFF1FEF
:0C05E0000590F491E02D0994F894FFCFF1
:00000001FF
